:100000000C942A000C943F000C943F000C943F0089
:100010000C943F000C943F000C943F000C943F0064
:100020000C943F000C943F000C943F000C943F0054
:100030000C943F000C943F000C943F000C943F0044
:100040000C943F000C943F000C943F000C943F0034
:100050000C943F0011241FBECFE5D8E0DEBFCDBF1A
:1000600011E0A0E6B0E0E4EEF6E202C005900D92E9
:10007000A03AB107D9F70E94E60E0C9470130C94C5
:100080000000EF92FF920F931F937B018C0120E001
:1000900030E040E05FE40E94ED0388238CF0C8016B
:1000A000B70120E030E040E05FE40E94B9010E9427
:1000B0004D049B01AC01205030404040504806C0E8
:1000C000C801B7010E944D049B01AC01B901CA01EE
:1000D0001F910F91FF90EF900895A0E0B0E0E3E74B
:1000E000F0E00C949810DC012B01FA019C91923005
:1000F00008F439C1EB018881823008F433C19430AF
:1001000069F4843009F02FC111969C91119789816F
:10011000981709F428C1A7E9B0E025C1843009F493
:1001200021C18230A9F4923009F01DC19A01AD01BC
:1001300088E0EA010990AE01E90109929E0181502F
:10014000C1F7E201898111969C918923818308C1BD
:10015000923009F407C112962D903C901397EB0151
:100160008A819B811496AD90BD90CD90DC901797BD
:10017000EC80FD800E811F819101281B390BB90194
:1001800037FF04C066277727621B730B6032710547
:100190000CF061C0121613066CF537014801062EEB
:1001A00004C096948794779467940A94D2F721E0D8
:1001B00030E040E050E004C0220F331F441F551FC1
:1001C0006A95D2F721503040404050402E213F21C7
:1001D00040235123211531054105510521F021E02E
:1001E00030E040E050E079018A01E628F72808294C
:1001F00019293CC0232BD1F1260E371E35014601AB
:10020000062E04C096948794779467940A94D2F744
:1002100021E030E040E050E004C0220F331F441FD3
:10022000551F6A95D2F721503040404050402A2156
:100230003B214C215D21211531054105510521F05E
:1002400021E030E040E050E059016A01A628B728DB
:10025000C828D9280BC0821593052CF01C01AA24AC
:10026000BB24650103C0EE24FF24870111969C91F5
:10027000D20111968C91981709F445C0992339F051
:10028000A80197012A193B094C095D0906C0A6017E
:1002900095012E193F09400B510B57FD08C01182E3
:1002A0003382228224833583468357831DC081E0B5
:1002B00081833382228288279927DC01821B930B5A
:1002C000A40BB50B84839583A683B7830DC0220F3F
:1002D000331F441F551F24833583468357838281F0
:1002E000938101979383828324813581468157814D
:1002F000DA01C9010197A109B1098F5F9F4FAF4F83
:10030000BF4328F30BC0918333822282EA0CFB1C8B
:100310000C1D1D1DE482F5820683178383E0808314
:10032000248135814681578157FF1AC0C901AA2708
:1003300097FDA095BA2F81709070A070B0705695FF
:10034000479537952795822B932BA42BB52B848328
:100350009583A683B7838281938101969383828359
:10036000DF0101C0D201CD01CDB7DEB7E2E10C94CF
:10037000B410A0E2B0E0EFEBF1E00C94A4106983BC
:100380007A838B839C832D833E834F835887E9E058
:10039000EE2EF12CEC0EFD1ECE010196B7010E944F
:1003A0003E068E010F5E1F4FCE010596B8010E94DA
:1003B0003E068A8991E089278A8BC701B801AE0180
:1003C000475E5F4F0E946D000E946905A096E6E0BF
:1003D0000C94C010A0E2B0E0E0EFF1E00C94A410A7
:1003E00069837A838B839C832D833E834F835887D5
:1003F000F9E0EF2EF12CEC0EFD1ECE010196B701B7
:100400000E943E068E010F5E1F4FCE010596B80179
:100410000E943E06C701B801AE01475E5F4F0E94D1
:100420006D000E946905A096E6E00C94C010A0E261
:10043000B0E0EDE1F2E00C94981069837A838B834D
:100440009C832D833E834F835887CE010196BE0146
:10045000675F7F4F0E943E06CE010596BE016F5E2C
:100460007F4F0E943E069985923088F089898230BC
:10047000C8F0943019F4823051F404C0843029F467
:10048000923081F487E990E0C6C0923049F420E0D0
:100490009A858A89981321E02A87CE010996BBC0E4
:1004A000823049F420E09A858A89981321E02A8BCA
:1004B000CE014196B0C02D843E844F8458886D880B
:1004C0007E888F88988CEE24FF248701AA24BB2481
:1004D000650140E050E060E070E0E0E0F0E0C10184
:1004E00081709070892BE9F0E60CF71C081D191D2E
:1004F0009A01AB012A0D3B1D4C1D5D1D80E090E073
:10050000A0E0B0E0E614F7040805190520F481E046
:1005100090E0A0E0B0E0BA01A901480F591F6A1F9E
:100520007B1FAA0CBB1CCC1CDD1C97FE08C081E005
:1005300090E0A0E0B0E0A82AB92ACA2ADB2A3196C6
:10054000E032F10549F0660C771C881C991C569422
:10055000479437942794C3CFFA85EA892B893C893D
:100560008B859C85280F391F2E5F3F4F17C0CA010E
:1005700081709070892B61F016950795F794E79438
:1005800080E090E0A0E0B0E8E82AF92A0A2B1B2BD3
:1005900076956795579547952F5F3F4F77FDE7CF46
:1005A0000CC0440F551F661F771F17FD4160EE0CEE
:1005B000FF1C001F111F21503040403090E05907B0
:1005C00090E0690790E4790760F32B8F3C8FDB01A3
:1005D000CA018F779070A070B07080349105A1052A
:1005E000B10561F447FD0AC0E114F10401051105EC
:1005F00029F0405C5F4F6F4F7F4F40781A8EFE1797
:1006000011F081E08A8F4D8F5E8F6F8F78A383E02A
:10061000898FCE0149960E946905A096E2E10C946B
:10062000B410A8E1B0E0E7E1F3E00C94A010698316
:100630007A838B839C832D833E834F835887B9E0D5
:10064000EB2EF12CEC0EFD1ECE010196B7010E949F
:100650003E068E010F5E1F4FCE010596B8010E9427
:100660003E062985223008F47EC03989323010F4E4
:10067000B8017CC08A859A8989278A87243011F03D
:10068000223031F4231709F06EC067E970E06EC0C4
:10069000343039F41D861E861F86188A1C861B86F8
:1006A00004C0323021F484E08987B7015FC02B8514
:1006B0003C858B899C89281B390B3C872B87ED84D3
:1006C000FE840F851889AD88BE88CF88D88CEA143F
:1006D000FB040C051D0540F4EE0CFF1C001F111F50
:1006E000215030403C872B8720E030E040E050E054
:1006F00080E090E0A0E0B0E460E070E0EA14FB0489
:100700000C051D0540F0282B392B4A2B5B2BEA18D2
:10071000FB080C091D09B695A79597958795EE0CD2
:10072000FF1C001F111F6F5F7F4F6F31710531F785
:10073000DA01C9018F779070A070B0708034910594
:10074000A105B10561F427FD0AC0E114F10401051A
:10075000110529F0205C3F4F4F4F5F4F20782D87C8
:100760003E874F87588BBE01675F7F4FCB010E944A
:1007700069056896EAE00C94BC10A8E1B0E0E3ECEF
:10078000F3E00C94A41069837A838B839C832D837C
:100790003E834F83588789E0E82EF12CEC0EFD1E36
:1007A000CE010196B7010E943E068E010F5E1F4FDB
:1007B000CE010596B8010E943E068985823040F040
:1007C0008989823028F0C701B8010E94B60601C0AD
:1007D0008FEF6896E6E00C94C010A8E1B0E0E3EF7C
:1007E000F3E00C94A41069837A838B839C832D831C
:1007F0003E834F83588789E0E82EF12CEC0EFD1ED6
:10080000CE010196B7010E943E068E010F5E1F4F7A
:10081000CE010596B8010E943E068985823040F0DF
:100820008989823028F0C701B8010E94B60601C04C
:100830008FEF6896E6E00C94C010A8E1B0E0E3E228
:10084000F4E00C94A41069837A838B839C832D83BA
:100850003E834F83588789E0E82EF12CEC0EFD1E75
:10086000CE010196B7010E943E068E010F5E1F4F1A
:10087000CE010596B8010E943E068985823040F07F
:100880008989823028F0C701B8010E94B60601C0EC
:1008900081E06896E6E00C94C010ACE0B0E0E3E5DF
:1008A000F4E00C94A81069837A838B839C83CE0137
:1008B0000196BE016B5F7F4F0E943E068D818230A4
:1008C00061F1823050F1843021F48E81882351F11E
:1008D0002EC02F81388537FD20C06E812F31310524
:1008E0001CF06623F9F023C08EE190E0821B930B8D
:1008F00029853A854B855C8504C056954795379583
:1009000027958A95D2F76623B1F05095409530959A
:1009100021953F4F4F4F5F4F0EC020E030E040E049
:1009200050E009C02FEF3FEF4FEF5FE704C020E03A
:1009300030E040E050E8B901CA012C96E2E00C94A6
:10094000C410A8E0B0E0E7EAF4E00C94A0107B014A
:100950008C01611571058105910519F482E0898387
:1009600060C083E089838EE1C82ED12CDC82CB82EB
:10097000ED82FE820F831887C801B7010E941A0515
:10098000FC013197F7FF3BC0222733272E1B3F0B7B
:1009900057016801022E04C0D694C794B794A79457
:1009A0000A94D2F740E050E060E070E081E090E02F
:1009B000A0E0B0E004C0880F991FAA1FBB1F2A95B2
:1009C000D2F70197A109B1098E219F21A023B1235C
:1009D0000097A105B10521F041E050E060E070E032
:1009E0004A295B296C297D294D835E836F83788733
:1009F0008EE190E08E1B9F0B9C838B8312C03097FF
:100A000081F00E2E04C0EE0CFF1C001F111F0A9473
:100A1000D2F7ED82FE820F831887CE1ADF0ADC82BE
:100A2000CB821A82CE0101960E9469052896EAE0DF
:100A30000C94BC10EF92FF920F931F937B018C01DB
:100A400080E0E81680E0F80681E0080780E01807FB
:100A500088F48FEFE816F1040105110531F028F054
:100A600088E090E0A0E0B0E017C080E090E0A0E077
:100A7000B0E012C080E0E81680E0F80680E00807E9
:100A800081E0180728F088E190E0A0E0B0E004C021
:100A900080E190E0A0E0B0E020E230E040E050E013
:100AA000281B390B4A0B5B0B04C016950795F7946E
:100AB000E7948A95D2F7F701E156FF4F8081281B12
:100AC000310941095109C9011F910F91FF90EF9020
:100AD0000895DF92EF92FF920F931F93FC01E48041
:100AE000F58006811781D1808081823048F480E0D2
:100AF00090E0A0E1B0E0E82AF92A0A2B1B2BA5C060
:100B0000843009F49FC0823021F4EE24FF24870151
:100B100005C0E114F1040105110519F4E0E0F0E06D
:100B200096C0628173819FEF623879070CF05BC0D9
:100B300022E83FEF261B370B2A3131052CF020E04D
:100B400030E040E050E02AC0B801A701022E04C006
:100B500076956795579547950A94D2F781E090E08E
:100B6000A0E0B0E004C0880F991FAA1FBB1F2A9500
:100B7000D2F70197A109B1098E219F21A023B123AA
:100B80000097A105B10521F081E090E0A0E0B0E080
:100B90009A01AB01282B392B4A2B5B2BDA01C901B7
:100BA0008F779070A070B07080349105A105B10569
:100BB00039F427FF09C0205C3F4F4F4F5F4F04C0FF
:100BC000215C3F4F4F4F5F4FE0E0F0E02030A0E06E
:100BD0003A07A0E04A07A0E45A0710F0E1E0F0E08D
:100BE00079018A0127C06038710564F5FB01E1587D
:100BF000FF4FD801C7018F779070A070B07080341C
:100C00009105A105B10539F4E7FE0DC080E490E03F
:100C1000A0E0B0E004C08FE390E0A0E0B0E0E80E18
:100C2000F91E0A1F1B1F17FF05C016950795F7949D
:100C3000E794319687E016950795F794E7948A959F
:100C4000D1F705C0EE24FF248701EFEFF0E06E2F0F
:100C5000679566276795902F9F77D794DD24D79463
:100C60008E2F8695492F462B582F5D29B701CA0133
:100C70001F910F91FF90EF90DF900895FC01DB0131
:100C8000408151812281622F6F7770E0221F2227DD
:100C9000221F9381892F880F822B282F30E0991FE4
:100CA0009927991F11969C93119721153105A9F544
:100CB000411551056105710511F482E037C082E8E4
:100CC0009FEF13969C938E9312979A01AB0167E066
:100CD000220F331F441F551F6A95D1F783E08C9371
:100CE0000DC0220F331F441F551F12968D919C91EA
:100CF0001397019713969C938E931297203080E060
:100D0000380780E0480780E4580758F314962D937D
:100D10003D934D935C93179708952F3F310579F4D8
:100D2000411551056105710519F484E08C9308950E
:100D300064FF03C081E08C9312C01C9210C02F5737
:100D4000304013963C932E93129783E08C9387E068
:100D5000440F551F661F771F8A95D1F7706414964C
:100D60004D935D936D937C93179708951F93DC01CA
:100D7000FB019C91923008F447C08081823008F4D6
:100D800043C0943051F411961C91843099F58181BF
:100D9000682F70E0611B71093FC0843021F09230F0
:100DA00031F48230B9F18181882389F12DC0119607
:100DB0001C9111978230F1F081811817D9F41296A5
:100DC0002D913C911397828193818217930794F020
:100DD00028173907BCF014968D919D910D90BC9108
:100DE000A02D2481358146815781281739074A076C
:100DF0005B0718F4112341F00AC082179307A40778
:100E0000B50740F4112319F061E070E005C06FEF01
:100E10007FEF02C060E070E0CB011F910895DF9387
:100E2000CF930F92CDB7DEB78983A7E3B0E0E7E3B6
:100E3000F0E0808188608C93E2E5F0E01082ECE5E0
:100E4000F0E08981482F50E0CA019C01220F331F36
:100E5000C9019695982F882797958795821B930BA4
:100E6000840F951F24E630E0B9010E944F10CB019A
:100E70008083E3E5F0E08DE680830F90CF91DF91F2
:100E80000895DF93CF9300D000D00F92CDB7DEB797
:100E900089836A834B838981282F30E03D832C83AB
:100EA0008C819D818234910509F444C02C813D815F
:100EB0002334310534F48C819D818134910571F0A6
:100EC000BCC02C813D812334310509F45FC08C8185
:100ED0009D818434910509F485C0AFC08B8188233E
:100EE000A1F0AAE3B0E0EAE3F0E08081482F8A8134
:100EF000282F30E081E090E0022E02C0880F991F79
:100F00000A94E2F7842B8C9398C0AAE3B0E0EAE35A
:100F1000F0E08081482F8A81282F30E081E090E046
:100F2000022E02C0880F991F0A94E2F7809584234D
:100F30008C9383C08B818823A1F0A7E3B0E0E7E323
:100F4000F0E08081482F8A81282F30E081E090E016
:100F5000022E02C0880F991F0A94E2F7842B8C930B
:100F60006CC0A7E3B0E0E7E3F0E08081482F8A811E
:100F7000282F30E081E090E0022E02C0880F991FF8
:100F80000A94E2F7809584238C9357C08B81882341
:100F9000A1F0A4E3B0E0E4E3F0E08081482F8A818F
:100FA000282F30E081E090E0022E02C0880F991FC8
:100FB0000A94E2F7842B8C9340C0A4E3B0E0E4E30E
:100FC000F0E08081482F8A81282F30E081E090E096
:100FD000022E02C0880F991F0A94E2F7809584239D
:100FE0008C932BC08B818823A1F0A1E3B0E0E1E3D7
:100FF000F0E08081482F8A81282F30E081E090E066
:10100000022E02C0880F991F0A94E2F7842B8C935A
:1010100014C0A1E3B0E0E1E3F0E08081482F8A81D1
:10102000282F30E081E090E0022E02C0880F991F47
:101030000A94E2F7809584238C930F900F900F9081
:101040000F900F90CF91DF910895DF93CF9300D051
:1010500000D00F92CDB7DEB789836A834B83898135
:10106000282F30E03D832C838C819D818234910533
:1010700009F444C02C813D812334310534F48C8142
:101080009D818134910571F0BCC02C813D81233458
:10109000310509F45FC08C819D818434910509F488
:1010A00085C0AFC08B818823A1F0ABE3B0E0EBE358
:1010B000F0E08081482F8A81282F30E081E090E0A5
:1010C000022E02C0880F991F0A94E2F7842B8C939A
:1010D00098C0ABE3B0E0EBE3F0E08081482F8A8179
:1010E000282F30E081E090E0022E02C0880F991F87
:1010F0000A94E2F7809584238C9383C08B818823A4
:10110000A1F0A8E3B0E0E8E3F0E08081482F8A8115
:10111000282F30E081E090E0022E02C0880F991F56
:101120000A94E2F7842B8C936CC0A8E3B0E0E8E368
:10113000F0E08081482F8A81282F30E081E090E024
:10114000022E02C0880F991F0A94E2F7809584232B
:101150008C9357C08B818823A1F0A5E3B0E0E5E331
:10116000F0E08081482F8A81282F30E081E090E0F4
:10117000022E02C0880F991F0A94E2F7842B8C93E9
:1011800040C0A5E3B0E0E5E3F0E08081482F8A812C
:10119000282F30E081E090E0022E02C0880F991FD6
:1011A0000A94E2F7809584238C932BC08B8188234B
:1011B000A1F0A2E3B0E0E2E3F0E08081482F8A8171
:1011C000282F30E081E090E0022E02C0880F991FA6
:1011D0000A94E2F7842B8C9314C0A2E3B0E0E2E31C
:1011E000F0E08081482F8A81282F30E081E090E074
:1011F000022E02C0880F991F0A94E2F7809584237B
:101200008C930F900F900F900F900F90CF91DF91D4
:101210000895DF93CF9300D000D00F92CDB7DEB703
:1012200089836A838981282F30E03D832C834C8118
:101230005D814234510549F18C819D818334910552
:1012400034F42C813D812134310561F057C04C814B
:101250005D814334510561F18C819D818434910518
:10126000D1F14CC0E9E3F0E08081282F30E08A81A1
:10127000882F90E0A90102C0559547958A95E2F71D
:10128000CA01582F51705B833AC0E6E3F0E08081D9
:10129000282F30E08A81882F90E0A90102C055955F
:1012A00047958A95E2F7CA01582F51705B8327C092
:1012B000E3E3F0E08081282F30E08A81882F90E0FE
:1012C000A90102C0559547958A95E2F7CA01582FA2
:1012D00051705B8314C0E0E3F0E08081282F30E0A0
:1012E0008A81882F90E0A90102C0559547958A957B
:1012F000E2F7CA01582F51705B8301C01B828B81BA
:101300000F900F900F900F900F90CF91DF91089555
:10131000DF93CF93CDB7DEB7E7E2F0E080EC8083D8
:10132000E6E2F0E087E88083CF91DF910895DF93D4
:10133000CF930F92CDB7DEB78983A7E2B0E0E7E2A3
:10134000F0E08081982F907F89818F70892B8C931A
:10135000A6E2B0E0E6E2F0E0808180648C93E6E211
:10136000F0E08081882F90E0807490700097B9F74A
:10137000E4E2F0E0808191810F90CF91DF910895B8
:10138000DF93CF93CDB7DEB7A7E3B0E0E7E3F0E0BC
:10139000808183608C93A8E3B0E0E8E3F0E0808193
:1013A0008C7F8C93CF91DF910895DF93CF9300D002
:1013B00000D0CDB7DEB789836A838981282F30E0DA
:1013C0003C832B838B819C818130910589F02B811B
:1013D0003C8122303105D9F08B819C81009729F521
:1013E000A8E3B0E0E8E3F0E080818C7F8C931DC03F
:1013F000A8E3B0E0E8E3F0E0808181608C93A8E3AB
:10140000B0E0E8E3F0E080818D7F8C930EC0A8E32C
:10141000B0E0E8E3F0E0808182608C93A8E3B0E084
:10142000E8E3F0E080818E7F8C938A810E940F0731
:101430000F900F900F900F90CF91DF910895DF9351
:10144000CF9300D0CDB7DEB781E00E9497099A8391
:10145000898389819A81CC01A0E0B0E0BC01CD01F3
:101460000E94A104DC01CB01BC01CD012AE037EDD3
:1014700043E250E40E941702DC01CB01BC01CD0124
:1014800020E030E048EC52E40E941702DC01CB017E
:10149000BC01CD0120E030EC4FE754E40E94110381
:1014A000DC01CB01BC01CD010E944100DC01CB017C
:1014B0000F900F90CF91DF910895DF93CF93CDB729
:1014C000DEB7A7E3B0E0E7E3F0E08081806E8C93C5
:1014D000A8E3B0E0E8E3F0E080818F718C93CF91D6
:1014E000DF910895DF93CF930F92CDB7DEB7898355
:1014F000A8E3B0E0E8E3F0E08081482F8981282F5D
:1015000030E081E090E0022E02C0880F991F0A941B
:10151000E2F7842B8C930F90CF91DF910895DF93A6
:10152000CF930F92CDB7DEB78983A8E3B0E0E8E3AD
:10153000F0E08081482F8981282F30E081E090E021
:10154000022E02C0880F991F0A94E2F78095842327
:101550008C930F90CF91DF910895DF93CF9300D0BC
:10156000CDB7DEB780E00E9497099A83898389818D
:101570009A81CC01A0E0B0E024E630E040E050E009
:10158000BC01CD010E943010DC01CB012FEF33E014
:1015900040E050E0BC01CD010E946210DA01C901B7
:1015A0000F900F90CF91DF910895DF93CF93CDB738
:1015B000DEB7A7970FB6F894DEBF0FBECDBF8FA3DF
:1015C000E5E3F0E08FA18083A2E3B0E0E2E3F0E0A6
:1015D00080818E7F8C93A2E3B0E0E2E3F0E0808133
:1015E00082608C9380E090E0A0E8BFE38BA39CA393
:1015F000ADA3BEA36BA17CA18DA19EA12BEA3AEA6B
:101600004AEA50E40E941702DC01CB018F8F98A3B5
:10161000A9A3BAA36F8D78A189A19AA120E030E097
:1016200040E85FE30E941D0488231CF481E08E8F54
:1016300091C06F8D78A189A19AA120E030E04FE799
:1016400053E40E94BD0318160CF07BC06BA17CA173
:101650008DA19EA120E030E04AE754E40E941103EE
:10166000DC01CB018A8F9B8FAC8FBD8F6A8D7B8D08
:101670008C8D9D8D20E030E04AE755E40E941702F2
:10168000DC01CB018E8B9F8BA88FB98F6E897F89F0
:10169000888D998D20E030E040E85FE30E941D04D2
:1016A00088232CF481E090E09D8B8C8B3FC06E8969
:1016B0007F89888D998D20E03FEF4FE757E40E94A6
:1016C000BD0318164CF56A8D7B8D8C8D9D8D20E0A9
:1016D00030E040E251E40E941702DC01CB01BC0182
:1016E000CD010E944100DC01CB019D8B8C8B0FC092
:1016F00080E991E09B8B8A8B8A899B890197F1F71E
:101700009B8B8A8B8C899D8901979D8B8C8B8C8977
:101710009D89009769F724C06E897F89888D998D8E
:101720000E944100DC01CB019D8B8C8B8C899D89B3
:10173000998B888B888999890197F1F7998B888B88
:101740000FC06F8D78A189A19AA10E944100DC0190
:10175000CB018E8F8E8D8F878F858A95F1F78F873E
:10176000A2E3B0E0E2E3F0E080818D7F8C9380E043
:1017700090E0A0E0B0E48B879C87AD87BE876B8547
:101780007C858D859E8520E030E04AE755E40E9407
:101790001702DC01CB018F839887A987BA876F81F5
:1017A000788589859A8520E030E040E85FE30E94F3
:1017B0001D0488232CF481E090E09E838D833FC03C
:1017C0006F81788589859A8520E03FEF4FE757E460
:1017D0000E94BD0318164CF56B857C858D859E8512
:1017E00020E030E040E251E40E941702DC01CB012E
:1017F000BC01CD010E944100DC01CB019E838D83A1
:101800000FC080E991E09C838B838B819C81019741
:10181000F1F79C838B838D819E8101979E838D83BD
:101820008D819E81009769F714C06F8178858985C5
:101830009A850E944100DC01CB019E838D838D81BE
:101840009E819A83898389819A810197F1F79A838E
:101850008983A7960FB6F894DEBF0FBECDBFCF9198
:10186000DF910895DF93CF93CDB7DEB7A7970FB67B
:10187000F894DEBF0FBECDBF8FA3E5E3F0E08FA1EC
:101880008083A2E3B0E0E2E3F0E0808181608C93AA
:10189000A2E3B0E0E2E3F0E0808182608C9380E03C
:1018A00090E0A0E8BFE38BA39CA3ADA3BEA36BA174
:1018B0007CA18DA19EA12BEA3AEA4AEA50E40E945B
:1018C0001702DC01CB018F8F98A3A9A3BAA36F8D58
:1018D00078A189A19AA120E030E040E85FE30E946E
:1018E0001D0488231CF481E08E8F91C06F8D78A138
:1018F00089A19AA120E030E04FE753E40E94BD03A4
:1019000018160CF07BC06BA17CA18DA19EA120E0DC
:1019100030E04AE754E40E941103DC01CB018A8FD6
:101920009B8FAC8FBD8F6A8D7B8D8C8D9D8D20E0C4
:1019300030E04AE755E40E941702DC01CB018E8BB0
:101940009F8BA88FB98F6E897F89888D998D20E0B4
:1019500030E040E85FE30E941D0488232CF481E01E
:1019600090E09D8B8C8B3FC06E897F89888D998D8F
:1019700020E03FEF4FE757E40E94BD0318164CF5F7
:101980006A8D7B8D8C8D9D8D20E030E040E251E4AE
:101990000E941702DC01CB01BC01CD010E94410075
:1019A000DC01CB019D8B8C8B0FC080E991E09B8B80
:1019B0008A8B8A899B890197F1F79B8B8A8B8C890B
:1019C0009D8901979D8B8C8B8C899D89009769F7E8
:1019D00024C06E897F89888D998D0E944100DC0129
:1019E000CB019D8B8C8B8C899D89998B888B888969
:1019F00099890197F1F7998B888B0FC06F8D78A12A
:101A000089A19AA10E944100DC01CB018E8F8E8DAD
:101A10008F878F858A95F1F78F87A2E3B0E0E2E3A5
:101A2000F0E080818D7F8C9380E090E0A0E0B0E4D6
:101A30008B879C87AD87BE876B857C858D859E85D2
:101A400020E030E04AE755E40E941702DC01CB01B8
:101A50008F839887A987BA876F81788589859A85CA
:101A600020E030E040E85FE30E941D0488232CF46E
:101A700081E090E09E838D833FC06F81788589856A
:101A80009A8520E03FEF4FE757E40E94BD03181608
:101A90004CF56B857C858D859E8520E030E040E2AD
:101AA00051E40E941702DC01CB01BC01CD010E9470
:101AB0004100DC01CB019E838D830FC080E991E062
:101AC0009C838B838B819C810197F1F79C838B8313
:101AD0008D819E8101979E838D838D819E8100974C
:101AE00069F714C06F81788589859A850E944100C5
:101AF000DC01CB019E838D838D819E819A838983B6
:101B000089819A810197F1F79A838983A7960FB605
:101B1000F894DEBF0FBECDBFCF91DF910895DF9364
:101B2000CF93CDB7DEB72E970FB6F894DEBF0FBEBA
:101B3000CDBFA1E3B0E0E1E3F0E0808183608C936E
:101B4000E4E3F0E08FEF808380E090E0A0EAB1E48E
:101B50008B879C87AD87BE876B857C858D859E85B1
:101B600020E030E04AE755E40E941702DC01CB0197
:101B70008F839887A987BA876F81788589859A85A9
:101B800020E030E040E85FE30E941D0488232CF44D
:101B900081E090E09E838D833FC06F817885898549
:101BA0009A8520E03FEF4FE757E40E94BD031816E7
:101BB0004CF56B857C858D859E8520E030E040E28C
:101BC00051E40E941702DC01CB01BC01CD010E944F
:101BD0004100DC01CB019E838D830FC080E991E041
:101BE0009C838B838B819C810197F1F79C838B83F2
:101BF0008D819E8101979E838D838D819E8100972B
:101C000069F714C06F81788589859A850E944100A3
:101C1000DC01CB019E838D838D819E819A83898394
:101C200089819A810197F1F79A83898388E30E94D9
:101C3000D50A8CE00E94D50A81E00E94D50A2E9632
:101C40000FB6F894DEBF0FBECDBFCF91DF910895E0
:101C5000DF93CF9300D0CDB7DEB79A8389830AC0D4
:101C6000E981FA8180810E94320C89819A810196F2
:101C70009A838983E981FA818081882389F70F908B
:101C80000F90CF91DF910895DF93CF9300D000D0D4
:101C90000F92CDB7DEB78A836B838A81282F30E01D
:101CA0003D832C838C819D81009731F02C813D8177
:101CB0002130310521F006C08B81898303C08B81DF
:101CC000805C8983898180680E94D50A0F900F907B
:101CD0000F900F900F90CF91DF910895DF93CF93E6
:101CE00000D000D0CDB7DEB789836A835C834B8395
:101CF00089816A810E94440E8B819C810E94280EFA
:101D00000F900F900F900F90CF91DF910895DF9378
:101D1000CF93CDB7DEB781E00E94D50ACF91DF9196
:101D20000895DF93CF93CDB7DEB7A1E3B0E0E1E351
:101D3000F0E080818B7F8C93CF91DF910895DF93CA
:101D4000CF930F92CDB7DEB7E0E3F0E08081882F2C
:101D500090E0847090701982009711F081E089837F
:101D600089810F90CF91DF910895DF93CF93CDB705
:101D7000DEB7A1E3B0E0E1E3F0E0808188608C931E
:101D8000A2E3B0E0E2E3F0E08081877F8C93CF9123
:101D9000DF910895DF93CF93CDB7DEB7A2E3B0E034
:101DA000E2E3F0E0808188608C93CF91DF91089529
:101DB000DF93CF93CDB7DEB7A2E3B0E0E2E3F0E08C
:101DC0008081877F8C93CF91DF910895DF93CF93AC
:101DD000CDB7DEB7A3970FB6F894DEBF0FBECDBF69
:101DE0000E9488090E948F0D0E945D0A0E94C0090E
:101DF0000E94B50E0E94910E0E941F0A9B8B8A8B37
:101E00000E94AD0A998B888B0E949F0E8F878A89CA
:101E10009B898832910528F081E064E60E94D5090B
:101E200022C08A899B898332910528F081E06BE486
:101E30000E94D50918C08A899B898E31910528F0A6
:101E400081E062E30E94D5090EC08A899B898931AD
:101E5000910528F081E069E10E94D50904C080E085
:101E600060E00E94D509888999898F30910550F4E6
:101E700085E00E94720A86E00E94720A87E00E9452
:101E8000720A27C0888999898333910550F485E0C7
:101E90000E94720A86E00E94720A87E00E948F0AFE
:101EA00018C0888999898734910550F485E00E948B
:101EB000720A86E00E948F0A87E00E948F0A09C09A
:101EC00085E00E948F0A86E00E948F0A87E00E94C8
:101ED0008F0A0E94870E8A899B898931910540F07B
:101EE00020E630E080E060E0A9010E946E0E07C0AD
:101EF0002AE630E080E060E0A9010E946E0E8DB716
:101F00009EB708970FB6F8949EBF0FBE8DBFEDB772
:101F1000FEB73196CE0144969183808385E790E0A9
:101F2000938382838A899B8995838483888999890D
:101F3000978386830E94CF108DB79EB708960FB601
:101F4000F8949EBF0FBE8DBF9E012C5E3F4F81E077
:101F500060E0A9010E946E0E8F85813061F40E94BD
:101F6000CA0E0E94870E27E830E080E060E0A901F9
:101F70000E946E0E02C00E94D80E80E090E0AAEF90
:101F8000B3E48B879C87AD87BE876B857C858D8509
:101F90009E8520E030E04AE755E40E941702DC010C
:101FA000CB018F839887A987BA876F8178858985C8
:101FB0009A8520E030E040E85FE30E941D0488231A
:101FC0002CF481E090E09E838D833FC06F81788503
:101FD00089859A8520E03FEF4FE757E40E94BD03D3
:101FE00018164CF56B857C858D859E8520E030E04C
:101FF00040E251E40E941702DC01CB01BC01CD019B
:102000000E944100DC01CB019E838D830FC080E9DB
:1020100091E09C838B838B819C810197F1F79C835A
:102020008B838D819E8101979E838D838D819E817F
:10203000009769F7E1CE6F81788589859A850E943E
:102040004100DC01CB019E838D838D819E819A832B
:10205000898389819A810197F1F79A838983CCCE0C
:10206000629FD001739FF001829FE00DF11D649F7C
:10207000E00DF11D929FF00D839FF00D749FF00D08
:10208000659FF00D9927729FB00DE11DF91F639FA9
:10209000B00DE11DF91FBD01CF011124089597FB7B
:1020A000092E07260AD077FD04D02ED006D00020B6
:1020B0001AF4709561957F4F0895F6F79095819584
:1020C0009F4F0895A1E21A2EAA1BBB1BFD010DC054
:1020D000AA1FBB1FEE1FFF1FA217B307E407F507D8
:1020E00020F0A21BB30BE40BF50B661F771F881FB4
:1020F000991F1A9469F760957095809590959B014A
:10210000AC01BD01CF010895AA1BBB1B51E107C063
:10211000AA1FBB1FA617B70710F0A61BB70B881F77
:10212000991F5A95A9F780959095BC01CD01089506
:102130002F923F924F925F926F927F928F929F92D7
:10214000AF92BF92CF92DF92EF92FF920F931F93C5
:10215000CF93DF93CDB7DEB7CA1BDB0B0FB6F89476
:10216000DEBF0FBECDBF09942A88398848885F84B6
:102170006E847D848C849B84AA84B984C884DF8027
:10218000EE80FD800C811B81AA81B981CE0FD11D0B
:102190000FB6F894DEBF0FBECDBFED010895AEE0DF
:1021A000B0E0E5EDF0E10C94A6100D891E8986E003
:1021B0008C831A8309838FEF9FE79E838D839E0113
:1021C000275E3F4FCE0101966F89788DA9010E944D
:1021D000F3102F813885020F131FF80110822E96FD
:1021E000E4E00C94C210ABE0B0E0E9EFF0E10C9455
:1021F00098103C012B015A01FC0117821682838141
:1022000081FD03C06FEF7FEFC6C19AE0892E1E01EA
:102210000894211C311CF3012381F20123FD8591D7
:1022200023FF81912F01882309F4B2C1853239F44B
:1022300023FD859123FF81912F01853229F490E0C0
:10224000B3010E94E612E7CF982FFF24EE249924D1
:10225000FFE1FF15D0F09B3269F09C3228F49032F8
:1022600059F0933291F40EC09D3249F0903369F4E5
:1022700041E024C052E0F52A84E0F82A28C098E022
:10228000F92A25C0E0E1FE2A22C0F7FC29C0892FE7
:1022900080538A3070F4F6FE05C0989C902C11246F
:1022A000980E15C0E89CE02C1124E80EF0E2FF2AFD
:1022B0000EC09E3229F4F6FC6BC140E4F42A07C03C
:1022C0009C3619F450E8F52A02C0983649F4F20118
:1022D00023FD959123FF91912F01992309F0B8CF08
:1022E000892F8554833018F08052833038F444E0CD
:1022F00050E0A40EB51E5FE359830FC0933631F052
:10230000933779F0933509F056C020C0F5018081EC
:10231000898342E050E0A40EB51E610101E010E0A7
:1023200012C0F501C080D180F6FC03C06FEF7FEFD3
:1023300002C0692D70E042E050E0A40EB51EC60157
:102340000E94DB128C015FE7F52214C0F501C0800A
:10235000D180F6FC03C06FEF7FEF02C0692D70E003
:1023600042E050E0A40EB51EC6010E94D0128C01BE
:1023700050E8F52AF3FE07C01AC080E290E0B301EE
:102380000E94E612EA948E2D90E008171907A8F330
:102390000EC0F601F7FC8591F7FE81916F0190E088
:1023A000B3010E94E612E110EA94015010400115B9
:1023B000110579F7EAC0943611F0993669F5F7FE00
:1023C00008C0F501208131814281538184E090E091
:1023D0000AC0F501808191819C01442737FD409519
:1023E000542F82E090E0A80EB91E9FE6F92257FF15
:1023F00009C050954095309521953F4F4F4F5F4F05
:10240000E0E8FE2ACA01B901A1012AE030E00E94F9
:102410001213D82ED21840C0953729F41F2D1F7ED5
:102420002AE030E01DC01F2D197F9F3661F09037E4
:1024300020F4983509F0ACC00FC0903739F09837C8
:1024400009F0A6C004C028E030E00AC0106114FD05
:10245000146020E130E004C014FD166020E132E099
:1024600017FF08C0F501608171818281938144E08A
:1024700050E008C0F50180819181BC0180E090E0CE
:1024800042E050E0A40EB51EA1010E941213D82E06
:10249000D2188FE7F82EF122F6FE0BC05EEFF52280
:1024A000D91438F4F4FE07C0F2FC05C08FEEF82210
:1024B00002C01D2D01C0192DF4FE0DC0FE01ED0D51
:1024C000F11D8081803319F499EEF92208C01F5F55
:1024D000F2FE05C003C08F2D867809F01F5F0F2D17
:1024E000F3FC14C0F0FE0FC01E1510F09D2C0BC0A5
:1024F0009D2C9E0C911A1E2D06C080E290E0B30127
:102500000E94E6121F5F1E15C0F304C01E1510F4D2
:10251000E11A01C0EE2404FF0FC080E390E0B30194
:102520000E94E61202FF1DC001FD03C088E790E093
:102530000EC088E590E00BC0802F867891F001FFF7
:1025400002C08BE201C080E2F7FC8DE290E0B301B3
:102550000E94E61206C080E390E0B3010E94E612FA
:102560009A94D914C0F3DA94F101ED0DF11D808134
:1025700090E0B3010E94E612DD20A9F706C080E2D8
:1025800090E0B3010E94E612EA94EE20C1F743CE38
:10259000F30166817781CB012B96E2E10C94B410B4
:1025A000FC010590615070400110D8F7809590951E
:1025B0008E0F9F1F0895FC01615070400190011023
:1025C000D8F7809590958E0F9F1F08950F931F93B6
:1025D000CF93DF938C01EB018B8181FF1BC082FFC6
:1025E0000DC02E813F818C819D812817390764F4AD
:1025F000E881F9810193F983E88306C0E885F985CC
:10260000802F0995892B31F48E819F8101969F83BC
:102610008E8302C00FEF1FEFC801DF91CF911F9192
:102620000F910895FA01AA27283051F1203181F144
:10263000E8946F936E7F6E5F7F4F8F4F9F4FAF4FCA
:10264000B1E03ED0B4E03CD0670F781F891F9A1FDD
:10265000A11D680F791F8A1F911DA11D6A0F711D91
:10266000811D911DA11D20D009F468943F912AE09D
:10267000269F11243019305D3193DEF6CF01089585
:10268000462F4770405D4193B3E00FD0C9F7F6CFB6
:10269000462F4F70405D4A3318F0495D31FD40527E
:1026A000419302D0A9F7EACFB4E0A6959795879514
:1026B00077956795BA95C9F70097610571050895F3
:1026C0009B01AC010A2E069457954795379527959F
:1026D000BA95C9F7620F731F841F951FA01D089537
:0426E000F894FFCF9C
:1026E40046414E206973204F4E0046414E20697387
:1026F400204F46460054656D703D257543204C447B
:10270400523D2575252500437269746963616C2007
:10271400616C65727421000000000000000000007C
:10272400010202030303030404040404040404056F
:102734000505050505050505050505050505050644
:102744000606060606060606060606060606060625
:102754000606060606060606060606060606060714
:1027640007070707070707070707070707070707F5
:1027740007070707070707070707070707070707E5
:1027840007070707070707070707070707070707D5
:1027940007070707070707070707070707070708C4
:1027A40008080808080808080808080808080808A5
:1027B4000808080808080808080808080808080895
:1027C4000808080808080808080808080808080885
:1027D4000808080808080808080808080808080875
:1027E4000808080808080808080808080808080865
:1027F4000808080808080808080808080808080855
:102804000808080808080808080808080808080844
:10281400080808080808080808080808080808003C
:00000001FF
